{
  "contractName": "DelegateRegistry",
  "abi": [
    {
      "anonymous": false,
      "inputs": [
        {
          "indexed": true,
          "internalType": "address",
          "name": "delegator",
          "type": "address"
        },
        {
          "indexed": true,
          "internalType": "bytes32",
          "name": "id",
          "type": "bytes32"
        },
        {
          "indexed": true,
          "internalType": "address",
          "name": "delegate",
          "type": "address"
        }
      ],
      "name": "ClearDelegate",
      "type": "event"
    },
    {
      "anonymous": false,
      "inputs": [
        {
          "indexed": true,
          "internalType": "address",
          "name": "delegator",
          "type": "address"
        },
        {
          "indexed": true,
          "internalType": "bytes32",
          "name": "id",
          "type": "bytes32"
        },
        {
          "indexed": true,
          "internalType": "address",
          "name": "delegate",
          "type": "address"
        }
      ],
      "name": "SetDelegate",
      "type": "event"
    },
    {
      "inputs": [
        {
          "internalType": "address",
          "name": "",
          "type": "address"
        },
        {
          "internalType": "bytes32",
          "name": "",
          "type": "bytes32"
        }
      ],
      "name": "delegation",
      "outputs": [
        {
          "internalType": "address",
          "name": "",
          "type": "address"
        }
      ],
      "stateMutability": "view",
      "type": "function"
    },
    {
      "inputs": [
        {
          "internalType": "bytes32",
          "name": "id",
          "type": "bytes32"
        },
        {
          "internalType": "address",
          "name": "delegate",
          "type": "address"
        }
      ],
      "name": "setDelegate",
      "outputs": [],
      "stateMutability": "nonpayable",
      "type": "function"
    },
    {
      "inputs": [
        {
          "internalType": "bytes32",
          "name": "id",
          "type": "bytes32"
        }
      ],
      "name": "clearDelegate",
      "outputs": [],
      "stateMutability": "nonpayable",
      "type": "function"
    }
  ],
  "bytecode": "0x608060405234801561001057600080fd5b50610794806100206000396000f3fe608060405234801561001057600080fd5b50600436106100415760003560e01c806374c6c45414610046578063bd86e508146100be578063f0bedbe21461010c575b600080fd5b6100926004803603604081101561005c57600080fd5b81019080803573ffffffffffffffffffffffffffffffffffffffff1690602001909291908035906020019092919050505061013a565b604051808273ffffffffffffffffffffffffffffffffffffffff16815260200191505060405180910390f35b61010a600480360360408110156100d457600080fd5b8101908080359060200190929190803573ffffffffffffffffffffffffffffffffffffffff16906020019092919050505061017c565b005b6101386004803603602081101561012257600080fd5b8101908080359060200190929190505050610538565b005b60006020528160005260406000206020528060005260406000206000915091509054906101000a900473ffffffffffffffffffffffffffffffffffffffff1681565b3373ffffffffffffffffffffffffffffffffffffffff168173ffffffffffffffffffffffffffffffffffffffff16141561021e576040517f08c379a00000000000000000000000000000000000000000000000000000000081526004018080602001828103825260168152602001807f43616e27742064656c656761746520746f2073656c660000000000000000000081525060200191505060405180910390fd5b600073ffffffffffffffffffffffffffffffffffffffff168173ffffffffffffffffffffffffffffffffffffffff1614156102c1576040517f08c379a00000000000000000000000000000000000000000000000000000000081526004018080602001828103825260158152602001807f43616e27742064656c656761746520746f20307830000000000000000000000081525060200191505060405180910390fd5b60008060003373ffffffffffffffffffffffffffffffffffffffff1673ffffffffffffffffffffffffffffffffffffffff168152602001908152602001600020600084815260200190815260200160002060009054906101000a900473ffffffffffffffffffffffffffffffffffffffff1690508073ffffffffffffffffffffffffffffffffffffffff168273ffffffffffffffffffffffffffffffffffffffff1614156103ba576040517f08c379a000000000000000000000000000000000000000000000000000000000815260040180806020018281038252602181526020018061073e6021913960400191505060405180910390fd5b816000803373ffffffffffffffffffffffffffffffffffffffff1673ffffffffffffffffffffffffffffffffffffffff168152602001908152602001600020600085815260200190815260200160002060006101000a81548173ffffffffffffffffffffffffffffffffffffffff021916908373ffffffffffffffffffffffffffffffffffffffff160217905550600073ffffffffffffffffffffffffffffffffffffffff168173ffffffffffffffffffffffffffffffffffffffff16146104d8578073ffffffffffffffffffffffffffffffffffffffff16833373ffffffffffffffffffffffffffffffffffffffff167f9c4f00c4291262731946e308dc2979a56bd22cce8f95906b975065e96cd5a06460405160405180910390a45b8173ffffffffffffffffffffffffffffffffffffffff16833373ffffffffffffffffffffffffffffffffffffffff167fa9a7fd460f56bddb880a465a9c3e9730389c70bc53108148f16d55a87a6c468e60405160405180910390a4505050565b60008060003373ffffffffffffffffffffffffffffffffffffffff1673ffffffffffffffffffffffffffffffffffffffff168152602001908152602001600020600083815260200190815260200160002060009054906101000a900473ffffffffffffffffffffffffffffffffffffffff169050600073ffffffffffffffffffffffffffffffffffffffff168173ffffffffffffffffffffffffffffffffffffffff16141561064f576040517f08c379a000000000000000000000000000000000000000000000000000000000815260040180806020018281038252600f8152602001807f4e6f2064656c656761746520736574000000000000000000000000000000000081525060200191505060405180910390fd5b60008060003373ffffffffffffffffffffffffffffffffffffffff1673ffffffffffffffffffffffffffffffffffffffff168152602001908152602001600020600084815260200190815260200160002060006101000a81548173ffffffffffffffffffffffffffffffffffffffff021916908373ffffffffffffffffffffffffffffffffffffffff1602179055508073ffffffffffffffffffffffffffffffffffffffff16823373ffffffffffffffffffffffffffffffffffffffff167f9c4f00c4291262731946e308dc2979a56bd22cce8f95906b975065e96cd5a06460405160405180910390a4505056fe416c72656164792064656c65676174656420746f20746869732061646472657373a264697066735822122079ee424cfe8dedfef55b5b03a72af5a2ca67217a939a21799b976e50fa3e726264736f6c63430007020033",
  "immutableReferences": {},
  "source": "// SPDX-License-Identifier: LGPL-3.0-only\npragma solidity >=0.7.0 <0.8.0;\n\ncontract DelegateRegistry {\n    \n    // The first key is the delegator and the second key a id. \n    // The value is the address of the delegate \n    mapping (address => mapping (bytes32 => address)) public delegation;\n    \n    // Using these events it is possible to process the events to build up reverse lookups.\n    // The indeces allow it to be very partial about how to build this lookup (e.g. only for a specific delegate).\n    event SetDelegate(address indexed delegator, bytes32 indexed id, address indexed delegate);\n    event ClearDelegate(address indexed delegator, bytes32 indexed id, address indexed delegate);\n    \n    /// @dev Sets a delegate for the msg.sender and a specific id.\n    ///      The combination of msg.sender and the id can be seen as a unique key.\n    /// @param id Id for which the delegate should be set\n    /// @param delegate Address of the delegate\n    function setDelegate(bytes32 id, address delegate) public {\n        require (delegate != msg.sender, \"Can't delegate to self\");\n        require (delegate != address(0), \"Can't delegate to 0x0\");\n        address currentDelegate = delegation[msg.sender][id];\n        require (delegate != currentDelegate, \"Already delegated to this address\");\n        \n        // Update delegation mapping\n        delegation[msg.sender][id] = delegate;\n        \n        if (currentDelegate != address(0)) {\n            emit ClearDelegate(msg.sender, id, currentDelegate);\n        }\n\n        emit SetDelegate(msg.sender, id, delegate);\n    }\n    \n    /// @dev Clears a delegate for the msg.sender and a specific id.\n    ///      The combination of msg.sender and the id can be seen as a unique key.\n    /// @param id Id for which the delegate should be set\n    function clearDelegate(bytes32 id) public {\n        address currentDelegate = delegation[msg.sender][id];\n        require (currentDelegate != address(0), \"No delegate set\");\n        \n        // update delegation mapping\n        delegation[msg.sender][id] = address(0);\n        \n        emit ClearDelegate(msg.sender, id, currentDelegate);\n    }\n}",
  "sourcePath": "/Users/fabien/WebstormProjects/gnosis/delegate-registry/contracts/DelegateRegistry.sol",
  "compiler": {
    "name": "solc",
    "version": "0.7.2+commit.51b20bc0.Emscripten.clang"
  },
  "schemaVersion": "3.3.0",
  "updatedAt": "2020-10-19T21:50:18.454Z",
  "devdoc": {
    "kind": "dev",
    "methods": {
      "clearDelegate(bytes32)": {
        "details": "Clears a delegate for the msg.sender and a specific id.      The combination of msg.sender and the id can be seen as a unique key.",
        "params": {
          "id": "Id for which the delegate should be set"
        }
      },
      "setDelegate(bytes32,address)": {
        "details": "Sets a delegate for the msg.sender and a specific id.      The combination of msg.sender and the id can be seen as a unique key.",
        "params": {
          "delegate": "Address of the delegate",
          "id": "Id for which the delegate should be set"
        }
      }
    },
    "version": 1
  },
  "userdoc": {
    "kind": "user",
    "methods": {},
    "version": 1
  }
}